{
  "contractName": "Contract",
  "abi": [
    {
      "inputs": [],
      "stateMutability": "nonpayable",
      "type": "constructor"
    },
    {
      "inputs": [
        {
          "internalType": "uint256",
          "name": "",
          "type": "uint256"
        }
      ],
      "name": "DrIDs",
      "outputs": [
        {
          "internalType": "address",
          "name": "",
          "type": "address"
        }
      ],
      "stateMutability": "view",
      "type": "function",
      "constant": true
    },
    {
      "inputs": [
        {
          "internalType": "uint256",
          "name": "",
          "type": "uint256"
        }
      ],
      "name": "PtIDs",
      "outputs": [
        {
          "internalType": "address",
          "name": "",
          "type": "address"
        }
      ],
      "stateMutability": "view",
      "type": "function",
      "constant": true
    },
    {
      "inputs": [],
      "name": "isAdmin",
      "outputs": [
        {
          "internalType": "bool",
          "name": "",
          "type": "bool"
        }
      ],
      "stateMutability": "view",
      "type": "function",
      "constant": true
    },
    {
      "inputs": [
        {
          "internalType": "string",
          "name": "fn",
          "type": "string"
        },
        {
          "internalType": "string",
          "name": "ln",
          "type": "string"
        },
        {
          "internalType": "string",
          "name": "email",
          "type": "string"
        },
        {
          "internalType": "string",
          "name": "sp",
          "type": "string"
        },
        {
          "internalType": "address",
          "name": "dr_id",
          "type": "address"
        },
        {
          "internalType": "string",
          "name": "_drInfo_hash",
          "type": "string"
        }
      ],
      "name": "addDrInfo",
      "outputs": [],
      "stateMutability": "nonpayable",
      "type": "function"
    },
    {
      "inputs": [
        {
          "internalType": "string",
          "name": "fn",
          "type": "string"
        },
        {
          "internalType": "string",
          "name": "ln",
          "type": "string"
        },
        {
          "internalType": "string",
          "name": "email",
          "type": "string"
        },
        {
          "internalType": "string",
          "name": "ph",
          "type": "string"
        },
        {
          "internalType": "address",
          "name": "pt_id",
          "type": "address"
        }
      ],
      "name": "addPtInfo",
      "outputs": [],
      "stateMutability": "nonpayable",
      "type": "function"
    },
    {
      "inputs": [
        {
          "internalType": "address",
          "name": "ptid",
          "type": "address"
        },
        {
          "internalType": "address",
          "name": "docid",
          "type": "address"
        },
        {
          "internalType": "string",
          "name": "date",
          "type": "string"
        },
        {
          "internalType": "string",
          "name": "time",
          "type": "string"
        }
      ],
      "name": "appoint",
      "outputs": [],
      "stateMutability": "nonpayable",
      "type": "function"
    },
    {
      "inputs": [
        {
          "internalType": "address",
          "name": "docid",
          "type": "address"
        }
      ],
      "name": "viewappoint",
      "outputs": [
        {
          "components": [
            {
              "internalType": "address",
              "name": "ptid",
              "type": "address"
            },
            {
              "internalType": "string",
              "name": "date",
              "type": "string"
            },
            {
              "internalType": "string",
              "name": "time",
              "type": "string"
            }
          ],
          "internalType": "struct Contract.appointment[]",
          "name": "",
          "type": "tuple[]"
        }
      ],
      "stateMutability": "view",
      "type": "function",
      "constant": true
    },
    {
      "inputs": [
        {
          "internalType": "address",
          "name": "ptid",
          "type": "address"
        },
        {
          "internalType": "string",
          "name": "rx",
          "type": "string"
        },
        {
          "internalType": "string",
          "name": "tablets",
          "type": "string"
        },
        {
          "internalType": "string",
          "name": "duration",
          "type": "string"
        },
        {
          "internalType": "string",
          "name": "test",
          "type": "string"
        },
        {
          "internalType": "string",
          "name": "hash",
          "type": "string"
        }
      ],
      "name": "record",
      "outputs": [],
      "stateMutability": "nonpayable",
      "type": "function"
    },
    {
      "inputs": [
        {
          "internalType": "address",
          "name": "ptid",
          "type": "address"
        }
      ],
      "name": "viewrecord",
      "outputs": [
        {
          "components": [
            {
              "internalType": "string",
              "name": "rx",
              "type": "string"
            },
            {
              "internalType": "string",
              "name": "tablets",
              "type": "string"
            },
            {
              "internalType": "string",
              "name": "duration",
              "type": "string"
            },
            {
              "internalType": "string",
              "name": "test",
              "type": "string"
            },
            {
              "internalType": "string",
              "name": "rhash",
              "type": "string"
            }
          ],
          "internalType": "struct Contract.Record[]",
          "name": "",
          "type": "tuple[]"
        }
      ],
      "stateMutability": "view",
      "type": "function",
      "constant": true
    },
    {
      "inputs": [],
      "name": "getAllDrs",
      "outputs": [
        {
          "internalType": "address[]",
          "name": "",
          "type": "address[]"
        }
      ],
      "stateMutability": "view",
      "type": "function",
      "constant": true
    },
    {
      "inputs": [],
      "name": "getAllPts",
      "outputs": [
        {
          "internalType": "address[]",
          "name": "",
          "type": "address[]"
        }
      ],
      "stateMutability": "view",
      "type": "function",
      "constant": true
    },
    {
      "inputs": [
        {
          "internalType": "address",
          "name": "adminadd",
          "type": "address"
        }
      ],
      "name": "accountBalance",
      "outputs": [
        {
          "internalType": "uint256",
          "name": "",
          "type": "uint256"
        }
      ],
      "stateMutability": "view",
      "type": "function",
      "constant": true
    },
    {
      "inputs": [
        {
          "internalType": "address",
          "name": "_id",
          "type": "address"
        }
      ],
      "name": "getPt",
      "outputs": [
        {
          "components": [
            {
              "internalType": "address",
              "name": "id",
              "type": "address"
            },
            {
              "internalType": "string",
              "name": "firstname",
              "type": "string"
            },
            {
              "internalType": "string",
              "name": "lastname",
              "type": "string"
            },
            {
              "internalType": "string",
              "name": "email",
              "type": "string"
            },
            {
              "internalType": "string",
              "name": "phone",
              "type": "string"
            }
          ],
          "internalType": "struct Contract.Patient",
          "name": "",
          "type": "tuple"
        }
      ],
      "stateMutability": "view",
      "type": "function",
      "constant": true
    },
    {
      "inputs": [
        {
          "internalType": "address",
          "name": "_id",
          "type": "address"
        }
      ],
      "name": "getDr",
      "outputs": [
        {
          "components": [
            {
              "internalType": "string",
              "name": "firstname",
              "type": "string"
            },
            {
              "internalType": "string",
              "name": "lastname",
              "type": "string"
            },
            {
              "internalType": "string",
              "name": "email",
              "type": "string"
            },
            {
              "internalType": "string",
              "name": "speciality",
              "type": "string"
            },
            {
              "internalType": "address",
              "name": "id",
              "type": "address"
            },
            {
              "internalType": "string",
              "name": "drHash",
              "type": "string"
            }
          ],
          "internalType": "struct Contract.Doctor",
          "name": "",
          "type": "tuple"
        }
      ],
      "stateMutability": "view",
      "type": "function",
      "constant": true
    },
    {
      "inputs": [],
      "name": "totalPt",
      "outputs": [
        {
          "internalType": "uint256",
          "name": "",
          "type": "uint256"
        }
      ],
      "stateMutability": "view",
      "type": "function",
      "constant": true
    },
    {
      "inputs": [],
      "name": "totalDr",
      "outputs": [
        {
          "internalType": "uint256",
          "name": "",
          "type": "uint256"
        }
      ],
      "stateMutability": "view",
      "type": "function",
      "constant": true
    },
    {
      "inputs": [],
      "name": "isDr",
      "outputs": [
        {
          "internalType": "bool",
          "name": "",
          "type": "bool"
        }
      ],
      "stateMutability": "view",
      "type": "function",
      "constant": true
    },
    {
      "inputs": [],
      "name": "isPt",
      "outputs": [
        {
          "internalType": "bool",
          "name": "",
          "type": "bool"
        }
      ],
      "stateMutability": "view",
      "type": "function",
      "constant": true
    }
  ],
  "bytecode": "0x60806040523480156200001157600080fd5b506200002d3360006200003360201b620012ce1790919060201c565b6200013c565b6200003f8282620000b7565b15620000925760405162461bcd60e51b815260206004820152601f60248201527f526f6c65733a206163636f756e7420616c72656164792068617320726f6c650060448201526064015b60405180910390fd5b6001600160a01b0316600090815260209190915260409020805460ff19166001179055565b60006001600160a01b0382166200011c5760405162461bcd60e51b815260206004820152602260248201527f526f6c65733a206163636f756e7420697320746865207a65726f206164647265604482015261737360f01b606482015260840162000089565b506001600160a01b03166000908152602091909152604090205460ff1690565b611bdc806200014c6000396000f3fe608060405234801561001057600080fd5b50600436106101165760003560e01c8063a53f514d116100a2578063c137db0c11610071578063c137db0c14610241578063c7a3f18f14610254578063d294cb0f14610267578063d4fd45c414610282578063f7afc72e146102a257600080fd5b8063a53f514d146101f4578063b4b9106d146101fc578063b6db75a01461020e578063bb13227c1461021657600080fd5b80634fe067fa116100e95780634fe067fa146101865780635e071974146101a657806365250e37146101c65780636c4e76f5146101d95780639b43fa3b146101ec57600080fd5b80630de6f9101461011b57806313953436146101445780631da3e2dc1461015957806323a3c5af1461016e575b600080fd5b61012e610129366004611482565b6102aa565b60405161013b91906114f1565b60405180910390f35b610157610152366004611624565b610567565b005b61016161065a565b60405161013b91906116a9565b6101766106bc565b604051901515815260200161013b565b610199610194366004611482565b6106ce565b60405161013b91906116f6565b6101b96101b4366004611482565b61087d565b60405161013b9190611792565b6101576101d436600461185b565b610bc1565b6101576101e736600461193c565b610ced565b610176610e11565b610161610e1e565b6007545b60405190815260200161013b565b610176610e7e565b6102296102243660046119fa565b610e8a565b6040516001600160a01b03909116815260200161013b565b61015761024f366004611a13565b610eb4565b6102296102623660046119fa565b610feb565b610200610275366004611482565b6001600160a01b03163190565b610295610290366004611482565b610ffb565b60405161013b9190611ac4565b600854610200565b6102e56040518060a0016040528060006001600160a01b03168152602001606081526020016060815260200160608152602001606081525090565b6001600160a01b03808316600090815260066020908152604091829020825160a08101909352805490931682526001830180549293929184019161032890611b6b565b80601f016020809104026020016040519081016040528092919081815260200182805461035490611b6b565b80156103a15780601f10610376576101008083540402835291602001916103a1565b820191906000526020600020905b81548152906001019060200180831161038457829003601f168201915b505050505081526020016002820180546103ba90611b6b565b80601f01602080910402602001604051908101604052809291908181526020018280546103e690611b6b565b80156104335780601f1061040857610100808354040283529160200191610433565b820191906000526020600020905b81548152906001019060200180831161041657829003601f168201915b5050505050815260200160038201805461044c90611b6b565b80601f016020809104026020016040519081016040528092919081815260200182805461047890611b6b565b80156104c55780601f1061049a576101008083540402835291602001916104c5565b820191906000526020600020905b8154815290600101906020018083116104a857829003601f168201915b505050505081526020016004820180546104de90611b6b565b80601f016020809104026020016040519081016040528092919081815260200182805461050a90611b6b565b80156105575780601f1061052c57610100808354040283529160200191610557565b820191906000526020600020905b81548152906001019060200180831161053a57829003601f168201915b5050505050815250509050919050565b61057260023361134a565b6105b95760405162461bcd60e51b81526020600482015260136024820152721e5bdd48185c99481b9bdd081c185d1a595b9d606a1b60448201526064015b60405180910390fd5b6001600160a01b0383811660009081526004602090815260408083208151606081018352898616815280840188815292810187905281546001808201845592865294849020815160039096020180546001600160a01b0319169590961694909417855590518051939493610635939285019291909101906113cd565b50604082015180516106519160028401916020909101906113cd565b50505050505050565b606060088054806020026020016040519081016040528092919081815260200182805480156106b257602002820191906000526020600020905b81546001600160a01b03168152600190910190602001808311610694575b5050505050905090565b60006106c960023361134a565b905090565b6001600160a01b0381166000908152600460209081526040808320805482518185028101850190935280835260609492939192909184015b8282101561087257600084815260209081902060408051606081019091526003850290910180546001600160a01b03168252600181018054929391929184019161074f90611b6b565b80601f016020809104026020016040519081016040528092919081815260200182805461077b90611b6b565b80156107c85780601f1061079d576101008083540402835291602001916107c8565b820191906000526020600020905b8154815290600101906020018083116107ab57829003601f168201915b505050505081526020016002820180546107e190611b6b565b80601f016020809104026020016040519081016040528092919081815260200182805461080d90611b6b565b801561085a5780601f1061082f5761010080835404028352916020019161085a565b820191906000526020600020905b81548152906001019060200180831161083d57829003601f168201915b50505050508152505081526020019060010190610706565b505050509050919050565b6001600160a01b0381166000908152600560209081526040808320805482518185028101850190935280835260609492939192909184015b8282101561087257838290600052602060002090600502016040518060a00160405290816000820180546108e890611b6b565b80601f016020809104026020016040519081016040528092919081815260200182805461091490611b6b565b80156109615780601f1061093657610100808354040283529160200191610961565b820191906000526020600020905b81548152906001019060200180831161094457829003601f168201915b5050505050815260200160018201805461097a90611b6b565b80601f01602080910402602001604051908101604052809291908181526020018280546109a690611b6b565b80156109f35780601f106109c8576101008083540402835291602001916109f3565b820191906000526020600020905b8154815290600101906020018083116109d657829003601f168201915b50505050508152602001600282018054610a0c90611b6b565b80601f0160208091040260200160405190810160405280929190818152602001828054610a3890611b6b565b8015610a855780601f10610a5a57610100808354040283529160200191610a85565b820191906000526020600020905b815481529060010190602001808311610a6857829003601f168201915b50505050508152602001600382018054610a9e90611b6b565b80601f0160208091040260200160405190810160405280929190818152602001828054610aca90611b6b565b8015610b175780601f10610aec57610100808354040283529160200191610b17565b820191906000526020600020905b815481529060010190602001808311610afa57829003601f168201915b50505050508152602001600482018054610b3090611b6b565b80601f0160208091040260200160405190810160405280929190818152602001828054610b5c90611b6b565b8015610ba95780601f10610b7e57610100808354040283529160200191610ba9565b820191906000526020600020905b815481529060010190602001808311610b8c57829003601f168201915b505050505081525050815260200190600101906108b5565b610bcc60013361134a565b610c0d5760405162461bcd60e51b81526020600482015260126024820152713cb7ba9030b932903737ba103237b1ba37b960711b60448201526064016105b0565b6001600160a01b0386166000908152600560208181526040808420815160a0810183528a81528084018a905291820188905260608201879052608082018690528054600181018255908552938290208151805192959094020192610c759284929101906113cd565b506020828101518051610c8e92600185019201906113cd565b5060408201518051610caa9160028401916020909101906113cd565b5060608201518051610cc69160038401916020909101906113cd565b5060808201518051610ce29160048401916020909101906113cd565b505050505050505050565b610cf860003361134a565b610d355760405162461bcd60e51b815260206004820152600e60248201526d27b7363c902337b91020b236b4b760911b60448201526064016105b0565b6001600160a01b038116600090815260066020908152604090912086519091610d659160018401918901906113cd565b508451610d7b90600283019060208801906113cd565b508351610d9190600383019060208701906113cd565b508251610da790600483019060208601906113cd565b5080546001600160a01b0383166001600160a01b031991821681178355600780546001810182556000919091527fa66cc928b5edb82af9bd49922954155ab7b0942694bea4ce44661d9a8736c688018054909216179055610e096002836112ce565b505050505050565b60006106c960013361134a565b606060078054806020026020016040519081016040528092919081815260200182805480156106b2576020028201919060005260206000209081546001600160a01b03168152600190910190602001808311610694575050505050905090565b60006106c9813361134a565b60088181548110610e9a57600080fd5b6000918252602090912001546001600160a01b0316905081565b610ebf60003361134a565b610efc5760405162461bcd60e51b815260206004820152600e60248201526d27b7363c902337b91020b236b4b760911b60448201526064016105b0565b6001600160a01b03821660008181526003602081815260409092206004810180546001600160a01b0319169094179093558551610f3f92918401918701906113cd565b508651610f5290829060208a01906113cd565b508551610f6890600183019060208901906113cd565b508451610f7e90600283019060208801906113cd565b508151610f9490600583019060208501906113cd565b5060088054600180820183556000929092527ff3f7a9fe364faab93b216da50a3214154f22a0a2b415b23a84c8169e8b636ee30180546001600160a01b0319166001600160a01b03861617905561065190846112ce565b60078181548110610e9a57600080fd5b61103d6040518060c001604052806060815260200160608152602001606081526020016060815260200160006001600160a01b03168152602001606081525090565b6001600160a01b03821660009081526003602052604090819020815160c0810190925280548290829061106f90611b6b565b80601f016020809104026020016040519081016040528092919081815260200182805461109b90611b6b565b80156110e85780601f106110bd576101008083540402835291602001916110e8565b820191906000526020600020905b8154815290600101906020018083116110cb57829003601f168201915b5050505050815260200160018201805461110190611b6b565b80601f016020809104026020016040519081016040528092919081815260200182805461112d90611b6b565b801561117a5780601f1061114f5761010080835404028352916020019161117a565b820191906000526020600020905b81548152906001019060200180831161115d57829003601f168201915b5050505050815260200160028201805461119390611b6b565b80601f01602080910402602001604051908101604052809291908181526020018280546111bf90611b6b565b801561120c5780601f106111e15761010080835404028352916020019161120c565b820191906000526020600020905b8154815290600101906020018083116111ef57829003601f168201915b5050505050815260200160038201805461122590611b6b565b80601f016020809104026020016040519081016040528092919081815260200182805461125190611b6b565b801561129e5780601f106112735761010080835404028352916020019161129e565b820191906000526020600020905b81548152906001019060200180831161128157829003601f168201915b505050918352505060048201546001600160a01b031660208201526005820180546040909201916104de90611b6b565b6112d8828261134a565b156113255760405162461bcd60e51b815260206004820152601f60248201527f526f6c65733a206163636f756e7420616c72656164792068617320726f6c650060448201526064016105b0565b6001600160a01b0316600090815260209190915260409020805460ff19166001179055565b60006001600160a01b0382166113ad5760405162461bcd60e51b815260206004820152602260248201527f526f6c65733a206163636f756e7420697320746865207a65726f206164647265604482015261737360f01b60648201526084016105b0565b506001600160a01b03166000908152602091909152604090205460ff1690565b8280546113d990611b6b565b90600052602060002090601f0160209004810192826113fb5760008555611441565b82601f1061141457805160ff1916838001178555611441565b82800160010185558215611441579182015b82811115611441578251825591602001919060010190611426565b5061144d929150611451565b5090565b5b8082111561144d5760008155600101611452565b80356001600160a01b038116811461147d57600080fd5b919050565b60006020828403121561149457600080fd5b61149d82611466565b9392505050565b6000815180845260005b818110156114ca576020818501810151868301820152016114ae565b818111156114dc576000602083870101525b50601f01601f19169290920160200192915050565b602080825282516001600160a01b03168282015282015160a0604083015260009061151f60c08401826114a4565b90506040840151601f198085840301606086015261153d83836114a4565b9250606086015191508085840301608086015261155a83836114a4565b925060808601519150808584030160a08601525061157882826114a4565b95945050505050565b634e487b7160e01b600052604160045260246000fd5b600082601f8301126115a857600080fd5b813567ffffffffffffffff808211156115c3576115c3611581565b604051601f8301601f19908116603f011681019082821181831017156115eb576115eb611581565b8160405283815286602085880101111561160457600080fd5b836020870160208301376000602085830101528094505050505092915050565b6000806000806080858703121561163a57600080fd5b61164385611466565b935061165160208601611466565b9250604085013567ffffffffffffffff8082111561166e57600080fd5b61167a88838901611597565b9350606087013591508082111561169057600080fd5b5061169d87828801611597565b91505092959194509250565b6020808252825182820181905260009190848201906040850190845b818110156116ea5783516001600160a01b0316835292840192918401916001016116c5565b50909695505050505050565b60006020808301818452808551808352604092508286019150828160051b87010184880160005b8381101561178457888303603f19018552815180516001600160a01b0316845287810151606089860181905290611756828701826114a4565b9150508782015191508481038886015261177081836114a4565b96890196945050509086019060010161171d565b509098975050505050505050565b60006020808301818452808551808352604092508286019150828160051b87010184880160005b8381101561178457603f19898403018552815160a081518186526117df828701826114a4565b915050888201518582038a8701526117f782826114a4565b915050878201518582038987015261180f82826114a4565b9150506060808301518683038288015261182983826114a4565b925050506080808301519250858203818701525061184781836114a4565b9689019694505050908601906001016117b9565b60008060008060008060c0878903121561187457600080fd5b61187d87611466565b9550602087013567ffffffffffffffff8082111561189a57600080fd5b6118a68a838b01611597565b965060408901359150808211156118bc57600080fd5b6118c88a838b01611597565b955060608901359150808211156118de57600080fd5b6118ea8a838b01611597565b9450608089013591508082111561190057600080fd5b61190c8a838b01611597565b935060a089013591508082111561192257600080fd5b5061192f89828a01611597565b9150509295509295509295565b600080600080600060a0868803121561195457600080fd5b853567ffffffffffffffff8082111561196c57600080fd5b61197889838a01611597565b9650602088013591508082111561198e57600080fd5b61199a89838a01611597565b955060408801359150808211156119b057600080fd5b6119bc89838a01611597565b945060608801359150808211156119d257600080fd5b506119df88828901611597565b9250506119ee60808701611466565b90509295509295909350565b600060208284031215611a0c57600080fd5b5035919050565b60008060008060008060c08789031215611a2c57600080fd5b863567ffffffffffffffff80821115611a4457600080fd5b611a508a838b01611597565b97506020890135915080821115611a6657600080fd5b611a728a838b01611597565b96506040890135915080821115611a8857600080fd5b611a948a838b01611597565b95506060890135915080821115611aaa57600080fd5b611ab68a838b01611597565b945061190c60808a01611466565b602081526000825160c06020840152611ae060e08401826114a4565b90506020840151601f1980858403016040860152611afe83836114a4565b92506040860151915080858403016060860152611b1b83836114a4565b92506060860151915080858403016080860152611b3883836114a4565b60808701516001600160a01b031660a08781019190915287015186820390920160c08701529250905061157882826114a4565b600181811c90821680611b7f57607f821691505b60208210811415611ba057634e487b7160e01b600052602260045260246000fd5b5091905056fea2646970667358221220ceef3fe57994ef7570f3784ba447a0f85f8a39779a4527283ec6d742d837985664736f6c634300080b0033",
  "immutableReferences": {},
  "source": "// SPDX-License-Identifier: MIT\r\npragma solidity >=0.4.21;\r\n\r\nimport \"./Roles.sol\";\r\n\r\ncontract Contract {\r\n  using Roles for Roles.Role;\r\n\r\n  Roles.Role private admin;\r\n  Roles.Role private doctor;\r\n  Roles.Role private patient;\r\n  struct Doctor {\r\n    string firstname;\r\n    string lastname;\r\n    string email;\r\n    string speciality;\r\n    address id;\r\n    string drHash;\r\n  }\r\n  struct appointment{\r\n   address ptid;\r\n   string date;\r\n   string time;\r\n  }\r\n\r\n  struct Record{\r\n  string rx;\r\n  string tablets;\r\n  string duration;\r\n  string test;\r\n  string rhash;\r\n  }\r\n\r\n  mapping(address => Doctor) Doctors;\r\n  mapping(address=>appointment[])appointments;\r\n  mapping(address=>Record[])Records;\r\n  struct Patient {\r\n    address id;\r\n    string firstname;\r\n    string lastname;\r\n    string email;\r\n    string phone;\r\n  }\r\n\r\n  mapping(address => Patient) Patients;\r\n  address[] public PtIDs;\r\n  address[] public DrIDs;\r\n\r\n  constructor() {\r\n    admin.add(msg.sender);\r\n  }\r\n\r\n  //get Admin\r\n  function isAdmin() public view returns (bool) {\r\n    return admin.has(msg.sender);\r\n  }\r\n\r\n  //Add Doctor\r\n  function addDrInfo(string memory fn,string memory  ln,string memory  email,string memory sp,address dr_id, string memory _drInfo_hash) public {\r\n    require(admin.has(msg.sender), \"Only For Admin\");\r\n  Doctor storage drInfo=Doctors[dr_id]; \r\n    drInfo.id = dr_id;\r\n    drInfo.speciality=sp;\r\n    drInfo.firstname=fn;\r\n    drInfo.lastname=ln;\r\n    drInfo.email=email;\r\n    drInfo.drHash = _drInfo_hash;\r\n    DrIDs.push(dr_id);\r\n    doctor.add(dr_id);\r\n  }\r\n  //Add Patient\r\n  function addPtInfo(string memory fn,string memory  ln,string memory  email,string memory  ph,address pt_id) public {\r\n    require(admin.has(msg.sender), \"Only For Admin\");\r\n    Patient storage ptInfo = Patients[pt_id];\r\n    ptInfo.firstname = fn;\r\n    ptInfo.lastname = ln;\r\n    ptInfo.email = email;\r\n    ptInfo.phone = ph;\r\n    ptInfo.id = pt_id;\r\n    PtIDs.push(pt_id);\r\n    patient.add(pt_id);\r\n  }\r\n \r\n function appoint(address ptid,address docid,string memory date,string memory time)public{\r\n  require(patient.has(msg.sender),\"you are not patient\");\r\n  appointments[docid].push(appointment(ptid,date,time));\r\n }\r\n   function viewappoint(address docid)public view returns(appointment[] memory){\r\n    return appointments[docid];\r\n   }\r\nfunction record(address ptid,string memory rx,string memory tablets,string memory duration,string memory test,string memory hash)public{\r\n  require(doctor.has(msg.sender),\"you are not doctor\");\r\n  Records[ptid].push(Record(rx,tablets,duration,test,hash));\r\n}\r\n function viewrecord(address ptid)public view returns(Record[] memory){\r\n    return Records[ptid];\r\n   }\r\n  function getAllDrs() public view returns (address[] memory) {\r\n    return DrIDs;\r\n  }\r\nfunction getAllPts() public view returns (address[] memory) {\r\n    return PtIDs;\r\n  }\r\n   function accountBalance(address adminadd) public view returns (uint256){\r\n     return adminadd.balance;\r\n  }\r\n  function getPt(address _id) public view returns (Patient memory) {\r\n    return (Patients[_id]);\r\n  }\r\n   function getDr(address _id) public view returns (Doctor memory) {\r\n    return (Doctors[_id]);\r\n  }\r\n function totalPt()public view returns(uint256){\r\n   return PtIDs.length;\r\n }\r\n  function totalDr()public view returns(uint256){\r\n   return DrIDs.length;\r\n }\r\n  // check is Doctor/patient\r\n  function isDr() public view returns (bool) {\r\n    return doctor.has(msg.sender);\r\n  }\r\n  function isPt() public view returns (bool) {\r\n    return patient.has(msg.sender);\r\n  }\r\n}",
  "sourcePath": "C:\\Users\\user\\OneDrive\\Documents\\solidity\\hospital\\myapp\\contracts\\Contract.sol",
  "compiler": {
    "name": "solc",
    "version": "0.8.11+commit.d7f03943.Emscripten.clang"
  },
  "schemaVersion": "3.4.14",
  "updatedAt": "2023-06-02T14:19:50.169Z",
  "networkType": "ethereum",
  "devdoc": {
    "kind": "dev",
    "methods": {},
    "version": 1
  },
  "userdoc": {
    "kind": "user",
    "methods": {},
    "version": 1
  }
}